{
  "_format": "hh-sol-artifact-1",
  "contractName": "TokenFarm",
  "sourceName": "contracts/TokenFarm.sol",
  "abi": [
    {
      "inputs": [
        {
          "internalType": "contract DAppToken",
          "name": "_dappToken",
          "type": "address"
        },
        {
          "internalType": "contract LPToken",
          "name": "_lpToken",
          "type": "address"
        },
        {
          "internalType": "address",
          "name": "_treasury",
          "type": "address"
        }
      ],
      "stateMutability": "nonpayable",
      "type": "constructor"
    },
    {
      "anonymous": false,
      "inputs": [
        {
          "indexed": true,
          "internalType": "address",
          "name": "from",
          "type": "address"
        },
        {
          "indexed": false,
          "internalType": "uint256",
          "name": "amount",
          "type": "uint256"
        }
      ],
      "name": "Deposit",
      "type": "event"
    },
    {
      "anonymous": false,
      "inputs": [
        {
          "indexed": false,
          "internalType": "uint256",
          "name": "timestamp",
          "type": "uint256"
        },
        {
          "indexed": false,
          "internalType": "string",
          "name": "message",
          "type": "string"
        }
      ],
      "name": "NewReward",
      "type": "event"
    },
    {
      "anonymous": false,
      "inputs": [
        {
          "indexed": true,
          "internalType": "address",
          "name": "user",
          "type": "address"
        },
        {
          "indexed": false,
          "internalType": "uint256",
          "name": "amount",
          "type": "uint256"
        }
      ],
      "name": "RewardsClaimed",
      "type": "event"
    },
    {
      "anonymous": false,
      "inputs": [
        {
          "indexed": false,
          "internalType": "uint256",
          "name": "timestamp",
          "type": "uint256"
        },
        {
          "indexed": false,
          "internalType": "string",
          "name": "message",
          "type": "string"
        }
      ],
      "name": "RewardsDistributed",
      "type": "event"
    },
    {
      "anonymous": false,
      "inputs": [
        {
          "indexed": false,
          "internalType": "uint256",
          "name": "amount",
          "type": "uint256"
        }
      ],
      "name": "Withdrawal",
      "type": "event"
    },
    {
      "inputs": [],
      "name": "REWARD_PER_BLOCK",
      "outputs": [
        {
          "internalType": "uint256",
          "name": "",
          "type": "uint256"
        }
      ],
      "stateMutability": "view",
      "type": "function"
    },
    {
      "inputs": [],
      "name": "claimRewards",
      "outputs": [],
      "stateMutability": "nonpayable",
      "type": "function"
    },
    {
      "inputs": [],
      "name": "dappToken",
      "outputs": [
        {
          "internalType": "contract DAppToken",
          "name": "",
          "type": "address"
        }
      ],
      "stateMutability": "view",
      "type": "function"
    },
    {
      "inputs": [
        {
          "internalType": "uint256",
          "name": "_amount",
          "type": "uint256"
        }
      ],
      "name": "deposit",
      "outputs": [],
      "stateMutability": "nonpayable",
      "type": "function"
    },
    {
      "inputs": [],
      "name": "distributeRewardsAll",
      "outputs": [],
      "stateMutability": "nonpayable",
      "type": "function"
    },
    {
      "inputs": [],
      "name": "fee",
      "outputs": [
        {
          "internalType": "uint256",
          "name": "",
          "type": "uint256"
        }
      ],
      "stateMutability": "view",
      "type": "function"
    },
    {
      "inputs": [],
      "name": "lpToken",
      "outputs": [
        {
          "internalType": "contract LPToken",
          "name": "",
          "type": "address"
        }
      ],
      "stateMutability": "view",
      "type": "function"
    },
    {
      "inputs": [
        {
          "internalType": "uint256",
          "name": "_amount",
          "type": "uint256"
        }
      ],
      "name": "modifyReward",
      "outputs": [],
      "stateMutability": "nonpayable",
      "type": "function"
    },
    {
      "inputs": [],
      "name": "name",
      "outputs": [
        {
          "internalType": "string",
          "name": "",
          "type": "string"
        }
      ],
      "stateMutability": "view",
      "type": "function"
    },
    {
      "inputs": [],
      "name": "owner",
      "outputs": [
        {
          "internalType": "address",
          "name": "",
          "type": "address"
        }
      ],
      "stateMutability": "view",
      "type": "function"
    },
    {
      "inputs": [
        {
          "internalType": "uint256",
          "name": "",
          "type": "uint256"
        }
      ],
      "name": "stakers",
      "outputs": [
        {
          "internalType": "address",
          "name": "",
          "type": "address"
        }
      ],
      "stateMutability": "view",
      "type": "function"
    },
    {
      "inputs": [
        {
          "internalType": "address",
          "name": "",
          "type": "address"
        }
      ],
      "name": "structUser",
      "outputs": [
        {
          "internalType": "uint256",
          "name": "stakingBalance",
          "type": "uint256"
        },
        {
          "internalType": "uint256",
          "name": "checkpoints",
          "type": "uint256"
        },
        {
          "internalType": "uint256",
          "name": "pendingRewards",
          "type": "uint256"
        },
        {
          "internalType": "bool",
          "name": "hasStaked",
          "type": "bool"
        },
        {
          "internalType": "bool",
          "name": "isStaking",
          "type": "bool"
        }
      ],
      "stateMutability": "view",
      "type": "function"
    },
    {
      "inputs": [],
      "name": "totalStakingBalance",
      "outputs": [
        {
          "internalType": "uint256",
          "name": "",
          "type": "uint256"
        }
      ],
      "stateMutability": "view",
      "type": "function"
    },
    {
      "inputs": [],
      "name": "treasury",
      "outputs": [
        {
          "internalType": "address",
          "name": "",
          "type": "address"
        }
      ],
      "stateMutability": "view",
      "type": "function"
    },
    {
      "inputs": [],
      "name": "withdraw",
      "outputs": [],
      "stateMutability": "nonpayable",
      "type": "function"
    }
  ],
  "bytecode": "0x60806040526040518060400160405280601781526020017f50726f706f7274696f6e616c20546f6b656e204661726d000000000000000000815250600190816100489190610455565b50670de0b6b3a764000060065534801561006157600080fd5b5060405161266638038061266683398181016040528101906100839190610606565b82600360006101000a81548173ffffffffffffffffffffffffffffffffffffffff021916908373ffffffffffffffffffffffffffffffffffffffff16021790555081600460006101000a81548173ffffffffffffffffffffffffffffffffffffffff021916908373ffffffffffffffffffffffffffffffffffffffff16021790555033600260006101000a81548173ffffffffffffffffffffffffffffffffffffffff021916908373ffffffffffffffffffffffffffffffffffffffff160217905550600073ffffffffffffffffffffffffffffffffffffffff168173ffffffffffffffffffffffffffffffffffffffff16036101b5576040517f08c379a00000000000000000000000000000000000000000000000000000000081526004016101ac906106dc565b60405180910390fd5b806000806101000a81548173ffffffffffffffffffffffffffffffffffffffff021916908373ffffffffffffffffffffffffffffffffffffffff16021790555060c86005819055505050506106fc565b600081519050919050565b7f4e487b7100000000000000000000000000000000000000000000000000000000600052604160045260246000fd5b7f4e487b7100000000000000000000000000000000000000000000000000000000600052602260045260246000fd5b6000600282049050600182168061028657607f821691505b6020821081036102995761029861023f565b5b50919050565b60008190508160005260206000209050919050565b60006020601f8301049050919050565b600082821b905092915050565b6000600883026103017fffffffffffffffffffffffffffffffffffffffffffffffffffffffffffffffff826102c4565b61030b86836102c4565b95508019841693508086168417925050509392505050565b6000819050919050565b6000819050919050565b600061035261034d61034884610323565b61032d565b610323565b9050919050565b6000819050919050565b61036c83610337565b61038061037882610359565b8484546102d1565b825550505050565b600090565b610395610388565b6103a0818484610363565b505050565b5b818110156103c4576103b960008261038d565b6001810190506103a6565b5050565b601f821115610409576103da8161029f565b6103e3846102b4565b810160208510156103f2578190505b6104066103fe856102b4565b8301826103a5565b50505b505050565b600082821c905092915050565b600061042c6000198460080261040e565b1980831691505092915050565b6000610445838361041b565b9150826002028217905092915050565b61045e82610205565b67ffffffffffffffff81111561047757610476610210565b5b610481825461026e565b61048c8282856103c8565b600060209050601f8311600181146104bf57600084156104ad578287015190505b6104b78582610439565b86555061051f565b601f1984166104cd8661029f565b60005b828110156104f5578489015182556001820191506020850194506020810190506104d0565b86831015610512578489015161050e601f89168261041b565b8355505b6001600288020188555050505b505050505050565b600080fd5b600073ffffffffffffffffffffffffffffffffffffffff82169050919050565b60006105578261052c565b9050919050565b60006105698261054c565b9050919050565b6105798161055e565b811461058457600080fd5b50565b60008151905061059681610570565b92915050565b60006105a78261054c565b9050919050565b6105b78161059c565b81146105c257600080fd5b50565b6000815190506105d4816105ae565b92915050565b6105e38161054c565b81146105ee57600080fd5b50565b600081519050610600816105da565b92915050565b60008060006060848603121561061f5761061e610527565b5b600061062d86828701610587565b935050602061063e868287016105c5565b925050604061064f868287016105f1565b9150509250925092565b600082825260208201905092915050565b7f5468652074726561737572792063616e6e6f7420626520746865207a65726f2060008201527f6164647265737300000000000000000000000000000000000000000000000000602082015250565b60006106c6602783610659565b91506106d18261066a565b604082019050919050565b600060208201905081810360008301526106f5816106b9565b9050919050565b611f5b8061070b6000396000f3fe608060405234801561001057600080fd5b50600436106100f55760003560e01c8063975532dc11610097578063db03e22711610066578063db03e2271461022e578063ddca3f4314610238578063e766c83514610256578063fd5e6dd114610274576100f5565b8063975532dc146101a45780639bd5f36a146101c2578063b6b55f25146101de578063c716380d146101fa576100f5565b80635eb186f8116100d35780635eb186f81461012c5780635fcbd2851461014a57806361d027b3146101685780638da5cb5b14610186576100f5565b806306fdde03146100fa578063372500ab146101185780633ccfd60b14610122575b600080fd5b6101026102a4565b60405161010f919061144d565b60405180910390f35b610120610332565b005b61012a610561565b005b610134610889565b60405161014191906114ee565b60405180910390f35b6101526108af565b60405161015f919061152a565b60405180910390f35b6101706108d5565b60405161017d9190611566565b60405180910390f35b61018e6108f9565b60405161019b9190611566565b60405180910390f35b6101ac61091f565b6040516101b9919061159a565b60405180910390f35b6101dc60048036038101906101d791906115e6565b610925565b005b6101f860048036038101906101f391906115e6565b610a39565b005b610214600480360381019061020f919061163f565b610e61565b604051610225959493929190611687565b60405180910390f35b610236610eb1565b005b610240611073565b60405161024d919061159a565b60405180910390f35b61025e611079565b60405161026b919061159a565b60405180910390f35b61028e600480360381019061028991906115e6565b61107f565b60405161029b9190611566565b60405180910390f35b600180546102b190611709565b80601f01602080910402602001604051908101604052809291908181526020018280546102dd90611709565b801561032a5780601f106102ff5761010080835404028352916020019161032a565b820191906000526020600020905b81548152906001019060200180831161030d57829003601f168201915b505050505081565b600073ffffffffffffffffffffffffffffffffffffffff163373ffffffffffffffffffffffffffffffffffffffff16036103a1576040517f08c379a000000000000000000000000000000000000000000000000000000000815260040161039890611786565b60405180910390fd5b6000600960003373ffffffffffffffffffffffffffffffffffffffff1673ffffffffffffffffffffffffffffffffffffffff1681526020019081526020016000206002015490506000811161042b576040517f08c379a0000000000000000000000000000000000000000000000000000000008152600401610422906117f2565b60405180910390fd5b6000600960003373ffffffffffffffffffffffffffffffffffffffff1673ffffffffffffffffffffffffffffffffffffffff16815260200190815260200160002060020181905550600061047e826110be565b9050600360009054906101000a900473ffffffffffffffffffffffffffffffffffffffff1673ffffffffffffffffffffffffffffffffffffffff166340c10f1933836040518363ffffffff1660e01b81526004016104dd929190611812565b600060405180830381600087803b1580156104f757600080fd5b505af115801561050b573d6000803e3d6000fd5b505050503373ffffffffffffffffffffffffffffffffffffffff167ffc30cddea38e2bf4d6ea7d3f9ed3b6ad7f176419f4963bd81318067a4aee73fe82604051610555919061159a565b60405180910390a25050565b600073ffffffffffffffffffffffffffffffffffffffff163373ffffffffffffffffffffffffffffffffffffffff16036105d0576040517f08c379a00000000000000000000000000000000000000000000000000000000081526004016105c790611786565b60405180910390fd5b600960003373ffffffffffffffffffffffffffffffffffffffff1673ffffffffffffffffffffffffffffffffffffffff16815260200190815260200160002060030160019054906101000a900460ff1661065f576040517f08c379a000000000000000000000000000000000000000000000000000000000815260040161065690611887565b60405180910390fd5b6000600960003373ffffffffffffffffffffffffffffffffffffffff1673ffffffffffffffffffffffffffffffffffffffff168152602001908152602001600020600001549050600081116106e9576040517f08c379a00000000000000000000000000000000000000000000000000000000081526004016106e090611919565b60405180910390fd5b6106f2336111a1565b6000600960003373ffffffffffffffffffffffffffffffffffffffff1673ffffffffffffffffffffffffffffffffffffffff16815260200190815260200160002060000181905550806007600082825461074c9190611968565b925050819055506000600960003373ffffffffffffffffffffffffffffffffffffffff1673ffffffffffffffffffffffffffffffffffffffff16815260200190815260200160002060030160016101000a81548160ff021916908315150217905550600460009054906101000a900473ffffffffffffffffffffffffffffffffffffffff1673ffffffffffffffffffffffffffffffffffffffff1663a9059cbb33836040518363ffffffff1660e01b815260040161080b929190611812565b6020604051808303816000875af115801561082a573d6000803e3d6000fd5b505050506040513d601f19601f8201168201806040525081019061084e91906119c8565b507f4e70a604b23a8edee2b1d0a656e9b9c00b73ad8bb1afc2c59381ee9f69197de78160405161087e919061159a565b60405180910390a150565b600360009054906101000a900473ffffffffffffffffffffffffffffffffffffffff1681565b600460009054906101000a900473ffffffffffffffffffffffffffffffffffffffff1681565b60008054906101000a900473ffffffffffffffffffffffffffffffffffffffff1681565b600260009054906101000a900473ffffffffffffffffffffffffffffffffffffffff1681565b60065481565b600260009054906101000a900473ffffffffffffffffffffffffffffffffffffffff1673ffffffffffffffffffffffffffffffffffffffff163373ffffffffffffffffffffffffffffffffffffffff16146109b5576040517f08c379a00000000000000000000000000000000000000000000000000000000081526004016109ac90611a67565b60405180910390fd5b600081116109f8576040517f08c379a00000000000000000000000000000000000000000000000000000000081526004016109ef90611af9565b60405180910390fd5b806006819055507fafe8756db305d883542ec4bfe3721424eb941bba77e39879fd427dae9bd7cfaf42604051610a2e9190611b8b565b60405180910390a150565b600073ffffffffffffffffffffffffffffffffffffffff163373ffffffffffffffffffffffffffffffffffffffff1603610aa8576040517f08c379a0000000000000000000000000000000000000000000000000000000008152600401610a9f90611786565b60405180910390fd5b8060008111610aec576040517f08c379a0000000000000000000000000000000000000000000000000000000008152600401610ae390611c2b565b60405180910390fd5b600460009054906101000a900473ffffffffffffffffffffffffffffffffffffffff1673ffffffffffffffffffffffffffffffffffffffff166323b872dd3330856040518463ffffffff1660e01b8152600401610b4b93929190611c4b565b6020604051808303816000875af1158015610b6a573d6000803e3d6000fd5b505050506040513d601f19601f82011682018060405250810190610b8e91906119c8565b5081600960003373ffffffffffffffffffffffffffffffffffffffff1673ffffffffffffffffffffffffffffffffffffffff1681526020019081526020016000206000016000828254610be19190611c82565b925050819055508160076000828254610bfa9190611c82565b92505081905550600960003373ffffffffffffffffffffffffffffffffffffffff1673ffffffffffffffffffffffffffffffffffffffff16815260200190815260200160002060030160019054906101000a900460ff16610d14576008339080600181540180825580915050600190039060005260206000200160009091909190916101000a81548173ffffffffffffffffffffffffffffffffffffffff021916908373ffffffffffffffffffffffffffffffffffffffff1602179055506001600960003373ffffffffffffffffffffffffffffffffffffffff1673ffffffffffffffffffffffffffffffffffffffff16815260200190815260200160002060030160006101000a81548160ff0219169083151502179055505b6001600960003373ffffffffffffffffffffffffffffffffffffffff1673ffffffffffffffffffffffffffffffffffffffff16815260200190815260200160002060030160016101000a81548160ff0219169083151502179055506000600960003373ffffffffffffffffffffffffffffffffffffffff1673ffffffffffffffffffffffffffffffffffffffff1681526020019081526020016000206001015403610e055743600960003373ffffffffffffffffffffffffffffffffffffffff1673ffffffffffffffffffffffffffffffffffffffff16815260200190815260200160002060010181905550610e0f565b610e0e336111a1565b5b3373ffffffffffffffffffffffffffffffffffffffff167fe1fffcc4923d04b559f4d29a8bfc6cda04eb5b0d3c460751c2402c5c5cc9109c83604051610e55919061159a565b60405180910390a25050565b60096020528060005260406000206000915090508060000154908060010154908060020154908060030160009054906101000a900460ff16908060030160019054906101000a900460ff16905085565b600260009054906101000a900473ffffffffffffffffffffffffffffffffffffffff1673ffffffffffffffffffffffffffffffffffffffff163373ffffffffffffffffffffffffffffffffffffffff1614610f41576040517f08c379a0000000000000000000000000000000000000000000000000000000008152600401610f3890611a67565b60405180910390fd5b60005b600880549050811015611039576009600060088381548110610f6957610f68611cb6565b5b9060005260206000200160009054906101000a900473ffffffffffffffffffffffffffffffffffffffff1673ffffffffffffffffffffffffffffffffffffffff1673ffffffffffffffffffffffffffffffffffffffff16815260200190815260200160002060030160019054906101000a900460ff161561102c5761102b60088281548110610ffb57610ffa611cb6565b5b9060005260206000200160009054906101000a900473ffffffffffffffffffffffffffffffffffffffff166111a1565b5b8080600101915050610f44565b507fe3c442d494f7839238fa48d18694a40ec47029eb7cc107e2538430bb44c1222e426040516110699190611d57565b60405180910390a1565b60055481565b60075481565b6008818154811061108f57600080fd5b906000526020600020016000915054906101000a900473ffffffffffffffffffffffffffffffffffffffff1681565b600080612710600554846110d29190611d85565b6110dc9190611df6565b9050600360009054906101000a900473ffffffffffffffffffffffffffffffffffffffff1673ffffffffffffffffffffffffffffffffffffffff166340c10f1960008054906101000a900473ffffffffffffffffffffffffffffffffffffffff16836040518363ffffffff1660e01b815260040161115b929190611812565b600060405180830381600087803b15801561117557600080fd5b505af1158015611189573d6000803e3d6000fd5b5050505080836111999190611968565b915050919050565b6000600960008373ffffffffffffffffffffffffffffffffffffffff1673ffffffffffffffffffffffffffffffffffffffff16815260200190815260200160002060010154905080431161122a576040517f08c379a000000000000000000000000000000000000000000000000000000000815260040161122190611e99565b60405180910390fd5b60006007541161126f576040517f08c379a000000000000000000000000000000000000000000000000000000000815260040161126690611f05565b60405180910390fd5b6000814361127d9190611968565b90506000600754670de0b6b3a7640000600960008773ffffffffffffffffffffffffffffffffffffffff1673ffffffffffffffffffffffffffffffffffffffff168152602001908152602001600020600001546112da9190611d85565b6112e49190611df6565b90506000670de0b6b3a764000082846006546113009190611d85565b61130a9190611d85565b6113149190611df6565b905080600960008773ffffffffffffffffffffffffffffffffffffffff1673ffffffffffffffffffffffffffffffffffffffff16815260200190815260200160002060020160008282546113689190611c82565b9250508190555043600960008773ffffffffffffffffffffffffffffffffffffffff1673ffffffffffffffffffffffffffffffffffffffff168152602001908152602001600020600101819055505050505050565b600081519050919050565b600082825260208201905092915050565b60005b838110156113f75780820151818401526020810190506113dc565b60008484015250505050565b6000601f19601f8301169050919050565b600061141f826113bd565b61142981856113c8565b93506114398185602086016113d9565b61144281611403565b840191505092915050565b600060208201905081810360008301526114678184611414565b905092915050565b600073ffffffffffffffffffffffffffffffffffffffff82169050919050565b6000819050919050565b60006114b46114af6114aa8461146f565b61148f565b61146f565b9050919050565b60006114c682611499565b9050919050565b60006114d8826114bb565b9050919050565b6114e8816114cd565b82525050565b600060208201905061150360008301846114df565b92915050565b6000611514826114bb565b9050919050565b61152481611509565b82525050565b600060208201905061153f600083018461151b565b92915050565b60006115508261146f565b9050919050565b61156081611545565b82525050565b600060208201905061157b6000830184611557565b92915050565b6000819050919050565b61159481611581565b82525050565b60006020820190506115af600083018461158b565b92915050565b600080fd5b6115c381611581565b81146115ce57600080fd5b50565b6000813590506115e0816115ba565b92915050565b6000602082840312156115fc576115fb6115b5565b5b600061160a848285016115d1565b91505092915050565b61161c81611545565b811461162757600080fd5b50565b60008135905061163981611613565b92915050565b600060208284031215611655576116546115b5565b5b60006116638482850161162a565b91505092915050565b60008115159050919050565b6116818161166c565b82525050565b600060a08201905061169c600083018861158b565b6116a9602083018761158b565b6116b6604083018661158b565b6116c36060830185611678565b6116d06080830184611678565b9695505050505050565b7f4e487b7100000000000000000000000000000000000000000000000000000000600052602260045260246000fd5b6000600282049050600182168061172157607f821691505b602082108103611734576117336116da565b5b50919050565b7f63616e6e6f74206265206465207a65726f206164647265737300000000000000600082015250565b60006117706019836113c8565b915061177b8261173a565b602082019050919050565b6000602082019050818103600083015261179f81611763565b9050919050565b7f796f752068617665206e6f207265776172647300000000000000000000000000600082015250565b60006117dc6013836113c8565b91506117e7826117a6565b602082019050919050565b6000602082019050818103600083015261180b816117cf565b9050919050565b60006040820190506118276000830185611557565b611834602083018461158b565b9392505050565b7f796f7520617265206e6f74207374616b696e6700000000000000000000000000600082015250565b60006118716013836113c8565b915061187c8261183b565b602082019050919050565b600060208201905081810360008301526118a081611864565b9050919050565b7f596f752063616e6e6f7420776974686472617720796f75722062616c616e636560008201527f2069732030000000000000000000000000000000000000000000000000000000602082015250565b60006119036025836113c8565b915061190e826118a7565b604082019050919050565b60006020820190508181036000830152611932816118f6565b9050919050565b7f4e487b7100000000000000000000000000000000000000000000000000000000600052601160045260246000fd5b600061197382611581565b915061197e83611581565b925082820390508181111561199657611995611939565b5b92915050565b6119a58161166c565b81146119b057600080fd5b50565b6000815190506119c28161199c565b92915050565b6000602082840312156119de576119dd6115b5565b5b60006119ec848285016119b3565b91505092915050565b7f4f6e6c79206f776e65722063616e20706572666f726d2074686973206163746960008201527f6f6e000000000000000000000000000000000000000000000000000000000000602082015250565b6000611a516022836113c8565b9150611a5c826119f5565b604082019050919050565b60006020820190508181036000830152611a8081611a44565b9050919050565b7f5265776172642070657220626c6f636b206d757374206265206772656174657260008201527f207468616e203000000000000000000000000000000000000000000000000000602082015250565b6000611ae36027836113c8565b9150611aee82611a87565b604082019050919050565b60006020820190508181036000830152611b1281611ad6565b9050919050565b7f74686520626c6f636b2072657761726420616d6f756e7420776173206368616e60008201527f6765640000000000000000000000000000000000000000000000000000000000602082015250565b6000611b756023836113c8565b9150611b8082611b19565b604082019050919050565b6000604082019050611ba0600083018461158b565b8181036020830152611bb181611b68565b905092915050565b7f54686520616d6f756e74206d7573742062652067726561746572207468616e2060008201527f3000000000000000000000000000000000000000000000000000000000000000602082015250565b6000611c156021836113c8565b9150611c2082611bb9565b604082019050919050565b60006020820190508181036000830152611c4481611c08565b9050919050565b6000606082019050611c606000830186611557565b611c6d6020830185611557565b611c7a604083018461158b565b949350505050565b6000611c8d82611581565b9150611c9883611581565b9250828201905080821115611cb057611caf611939565b5b92915050565b7f4e487b7100000000000000000000000000000000000000000000000000000000600052603260045260246000fd5b7f74686520726577617264732068617665206265656e206469737472696275746560008201527f6400000000000000000000000000000000000000000000000000000000000000602082015250565b6000611d416021836113c8565b9150611d4c82611ce5565b604082019050919050565b6000604082019050611d6c600083018461158b565b8181036020830152611d7d81611d34565b905092915050565b6000611d9082611581565b9150611d9b83611581565b9250828202611da981611581565b91508282048414831517611dc057611dbf611939565b5b5092915050565b7f4e487b7100000000000000000000000000000000000000000000000000000000600052601260045260246000fd5b6000611e0182611581565b9150611e0c83611581565b925082611e1c57611e1b611dc7565b5b828204905092915050565b7f4e6f206e657720626c6f636b732073696e6365206c61737420636865636b706f60008201527f696e740000000000000000000000000000000000000000000000000000000000602082015250565b6000611e836023836113c8565b9150611e8e82611e27565b604082019050919050565b60006020820190508181036000830152611eb281611e76565b9050919050565b7f4e6f207374616b696e672062616c616e63650000000000000000000000000000600082015250565b6000611eef6012836113c8565b9150611efa82611eb9565b602082019050919050565b60006020820190508181036000830152611f1e81611ee2565b905091905056fea264697066735822122049052e63e4df74d9e05de0e90e0355e5650fb5c404db3c3506c2e47ecca98a5a64736f6c634300081c0033",
  "linkReferences": {},
  "deployedLinkReferences": {}
}