{
  "_format": "hh-sol-artifact-1",
  "contractName": "TokenFarm",
  "sourceName": "contracts/TokenFarm.sol",
  "abi": [
    {
      "inputs": [
        {
          "internalType": "contract DAppToken",
          "name": "_dappToken",
          "type": "address"
        },
        {
          "internalType": "contract LPToken",
          "name": "_lpToken",
          "type": "address"
        },
        {
          "internalType": "address",
          "name": "_treasury",
          "type": "address"
        }
      ],
      "stateMutability": "nonpayable",
      "type": "constructor"
    },
    {
      "anonymous": false,
      "inputs": [
        {
          "indexed": true,
          "internalType": "address",
          "name": "treasury",
          "type": "address"
        },
        {
          "indexed": false,
          "internalType": "uint256",
          "name": "amount",
          "type": "uint256"
        }
      ],
      "name": "CommissionWithdrawn",
      "type": "event"
    },
    {
      "anonymous": false,
      "inputs": [
        {
          "indexed": true,
          "internalType": "address",
          "name": "from",
          "type": "address"
        },
        {
          "indexed": false,
          "internalType": "uint256",
          "name": "amount",
          "type": "uint256"
        }
      ],
      "name": "Deposit",
      "type": "event"
    },
    {
      "anonymous": false,
      "inputs": [
        {
          "indexed": false,
          "internalType": "uint256",
          "name": "timestamp",
          "type": "uint256"
        },
        {
          "indexed": false,
          "internalType": "string",
          "name": "message",
          "type": "string"
        }
      ],
      "name": "FeeChanged",
      "type": "event"
    },
    {
      "anonymous": false,
      "inputs": [
        {
          "indexed": false,
          "internalType": "uint256",
          "name": "timestamp",
          "type": "uint256"
        },
        {
          "indexed": false,
          "internalType": "string",
          "name": "message",
          "type": "string"
        }
      ],
      "name": "NewReward",
      "type": "event"
    },
    {
      "anonymous": false,
      "inputs": [
        {
          "indexed": true,
          "internalType": "address",
          "name": "user",
          "type": "address"
        },
        {
          "indexed": false,
          "internalType": "uint256",
          "name": "amount",
          "type": "uint256"
        }
      ],
      "name": "RewardsClaimed",
      "type": "event"
    },
    {
      "anonymous": false,
      "inputs": [
        {
          "indexed": false,
          "internalType": "uint256",
          "name": "timestamp",
          "type": "uint256"
        },
        {
          "indexed": false,
          "internalType": "string",
          "name": "message",
          "type": "string"
        }
      ],
      "name": "RewardsDistributed",
      "type": "event"
    },
    {
      "anonymous": false,
      "inputs": [
        {
          "indexed": false,
          "internalType": "uint256",
          "name": "amount",
          "type": "uint256"
        }
      ],
      "name": "Withdrawal",
      "type": "event"
    },
    {
      "inputs": [],
      "name": "REWARD_PER_BLOCK",
      "outputs": [
        {
          "internalType": "uint256",
          "name": "",
          "type": "uint256"
        }
      ],
      "stateMutability": "view",
      "type": "function"
    },
    {
      "inputs": [],
      "name": "accruedFees",
      "outputs": [
        {
          "internalType": "uint256",
          "name": "",
          "type": "uint256"
        }
      ],
      "stateMutability": "view",
      "type": "function"
    },
    {
      "inputs": [],
      "name": "claimRewards",
      "outputs": [],
      "stateMutability": "nonpayable",
      "type": "function"
    },
    {
      "inputs": [],
      "name": "dappToken",
      "outputs": [
        {
          "internalType": "contract DAppToken",
          "name": "",
          "type": "address"
        }
      ],
      "stateMutability": "view",
      "type": "function"
    },
    {
      "inputs": [
        {
          "internalType": "uint256",
          "name": "_amount",
          "type": "uint256"
        }
      ],
      "name": "deposit",
      "outputs": [],
      "stateMutability": "nonpayable",
      "type": "function"
    },
    {
      "inputs": [],
      "name": "distributeRewardsAll",
      "outputs": [],
      "stateMutability": "nonpayable",
      "type": "function"
    },
    {
      "inputs": [],
      "name": "fee",
      "outputs": [
        {
          "internalType": "uint256",
          "name": "",
          "type": "uint256"
        }
      ],
      "stateMutability": "view",
      "type": "function"
    },
    {
      "inputs": [],
      "name": "getAccruedFees",
      "outputs": [
        {
          "internalType": "uint256",
          "name": "",
          "type": "uint256"
        }
      ],
      "stateMutability": "view",
      "type": "function"
    },
    {
      "inputs": [],
      "name": "lpToken",
      "outputs": [
        {
          "internalType": "contract LPToken",
          "name": "",
          "type": "address"
        }
      ],
      "stateMutability": "view",
      "type": "function"
    },
    {
      "inputs": [
        {
          "internalType": "uint256",
          "name": "_amount",
          "type": "uint256"
        }
      ],
      "name": "modifyFee",
      "outputs": [],
      "stateMutability": "nonpayable",
      "type": "function"
    },
    {
      "inputs": [
        {
          "internalType": "uint256",
          "name": "_amount",
          "type": "uint256"
        }
      ],
      "name": "modifyReward",
      "outputs": [],
      "stateMutability": "nonpayable",
      "type": "function"
    },
    {
      "inputs": [],
      "name": "name",
      "outputs": [
        {
          "internalType": "string",
          "name": "",
          "type": "string"
        }
      ],
      "stateMutability": "view",
      "type": "function"
    },
    {
      "inputs": [],
      "name": "owner",
      "outputs": [
        {
          "internalType": "address",
          "name": "",
          "type": "address"
        }
      ],
      "stateMutability": "view",
      "type": "function"
    },
    {
      "inputs": [
        {
          "internalType": "uint256",
          "name": "",
          "type": "uint256"
        }
      ],
      "name": "stakers",
      "outputs": [
        {
          "internalType": "address",
          "name": "",
          "type": "address"
        }
      ],
      "stateMutability": "view",
      "type": "function"
    },
    {
      "inputs": [
        {
          "internalType": "address",
          "name": "",
          "type": "address"
        }
      ],
      "name": "structUser",
      "outputs": [
        {
          "internalType": "uint256",
          "name": "stakingBalance",
          "type": "uint256"
        },
        {
          "internalType": "uint256",
          "name": "checkpoints",
          "type": "uint256"
        },
        {
          "internalType": "uint256",
          "name": "pendingRewards",
          "type": "uint256"
        },
        {
          "internalType": "bool",
          "name": "hasStaked",
          "type": "bool"
        },
        {
          "internalType": "bool",
          "name": "isStaking",
          "type": "bool"
        }
      ],
      "stateMutability": "view",
      "type": "function"
    },
    {
      "inputs": [],
      "name": "totalStakingBalance",
      "outputs": [
        {
          "internalType": "uint256",
          "name": "",
          "type": "uint256"
        }
      ],
      "stateMutability": "view",
      "type": "function"
    },
    {
      "inputs": [],
      "name": "treasury",
      "outputs": [
        {
          "internalType": "address",
          "name": "",
          "type": "address"
        }
      ],
      "stateMutability": "view",
      "type": "function"
    },
    {
      "inputs": [],
      "name": "withdraw",
      "outputs": [],
      "stateMutability": "nonpayable",
      "type": "function"
    },
    {
      "inputs": [],
      "name": "withdrawProfits",
      "outputs": [],
      "stateMutability": "nonpayable",
      "type": "function"
    }
  ],
  "bytecode": "0x60806040526040518060400160405280601781526020017f50726f706f7274696f6e616c20546f6b656e204661726d000000000000000000815250600190816100489190610455565b50670de0b6b3a764000060065534801561006157600080fd5b50604051612b68380380612b6883398181016040528101906100839190610606565b82600360006101000a81548173ffffffffffffffffffffffffffffffffffffffff021916908373ffffffffffffffffffffffffffffffffffffffff16021790555081600460006101000a81548173ffffffffffffffffffffffffffffffffffffffff021916908373ffffffffffffffffffffffffffffffffffffffff16021790555033600260006101000a81548173ffffffffffffffffffffffffffffffffffffffff021916908373ffffffffffffffffffffffffffffffffffffffff160217905550600073ffffffffffffffffffffffffffffffffffffffff168173ffffffffffffffffffffffffffffffffffffffff16036101b5576040517f08c379a00000000000000000000000000000000000000000000000000000000081526004016101ac906106dc565b60405180910390fd5b806000806101000a81548173ffffffffffffffffffffffffffffffffffffffff021916908373ffffffffffffffffffffffffffffffffffffffff16021790555060c86005819055505050506106fc565b600081519050919050565b7f4e487b7100000000000000000000000000000000000000000000000000000000600052604160045260246000fd5b7f4e487b7100000000000000000000000000000000000000000000000000000000600052602260045260246000fd5b6000600282049050600182168061028657607f821691505b6020821081036102995761029861023f565b5b50919050565b60008190508160005260206000209050919050565b60006020601f8301049050919050565b600082821b905092915050565b6000600883026103017fffffffffffffffffffffffffffffffffffffffffffffffffffffffffffffffff826102c4565b61030b86836102c4565b95508019841693508086168417925050509392505050565b6000819050919050565b6000819050919050565b600061035261034d61034884610323565b61032d565b610323565b9050919050565b6000819050919050565b61036c83610337565b61038061037882610359565b8484546102d1565b825550505050565b600090565b610395610388565b6103a0818484610363565b505050565b5b818110156103c4576103b960008261038d565b6001810190506103a6565b5050565b601f821115610409576103da8161029f565b6103e3846102b4565b810160208510156103f2578190505b6104066103fe856102b4565b8301826103a5565b50505b505050565b600082821c905092915050565b600061042c6000198460080261040e565b1980831691505092915050565b6000610445838361041b565b9150826002028217905092915050565b61045e82610205565b67ffffffffffffffff81111561047757610476610210565b5b610481825461026e565b61048c8282856103c8565b600060209050601f8311600181146104bf57600084156104ad578287015190505b6104b78582610439565b86555061051f565b601f1984166104cd8661029f565b60005b828110156104f5578489015182556001820191506020850194506020810190506104d0565b86831015610512578489015161050e601f89168261041b565b8355505b6001600288020188555050505b505050505050565b600080fd5b600073ffffffffffffffffffffffffffffffffffffffff82169050919050565b60006105578261052c565b9050919050565b60006105698261054c565b9050919050565b6105798161055e565b811461058457600080fd5b50565b60008151905061059681610570565b92915050565b60006105a78261054c565b9050919050565b6105b78161059c565b81146105c257600080fd5b50565b6000815190506105d4816105ae565b92915050565b6105e38161054c565b81146105ee57600080fd5b50565b600081519050610600816105da565b92915050565b60008060006060848603121561061f5761061e610527565b5b600061062d86828701610587565b935050602061063e868287016105c5565b925050604061064f868287016105f1565b9150509250925092565b600082825260208201905092915050565b7f5468652074726561737572792063616e6e6f7420626520746865207a65726f2060008201527f6164647265737300000000000000000000000000000000000000000000000000602082015250565b60006106c6602783610659565b91506106d18261066a565b604082019050919050565b600060208201905081810360008301526106f5816106b9565b9050919050565b61245d8061070b6000396000f3fe608060405234801561001057600080fd5b50600436106101215760003560e01c80638da5cb5b116100ad578063db03e22711610071578063db03e227146102a0578063ddca3f43146102aa578063e766c835146102c8578063fa200550146102e6578063fd5e6dd11461030257610121565b80638da5cb5b146101f8578063975532dc146102165780639bd5f36a14610234578063b6b55f2514610250578063c716380d1461026c57610121565b80633ccfd60b116100f45780633ccfd60b146101765780635eb186f8146101805780635fcbd2851461019e57806361d027b3146101bc578063682c2058146101da57610121565b806306fdde03146101265780631f3da15014610144578063372500ab1461016257806339913e091461016c575b600080fd5b61012e610332565b60405161013b919061176b565b60405180910390f35b61014c6103c0565b60405161015991906117a6565b60405180910390f35b61016a6103ca565b005b6101746105f9565b005b61017e6107fb565b005b610188610b23565b6040516101959190611840565b60405180910390f35b6101a6610b49565b6040516101b3919061187c565b60405180910390f35b6101c4610b6f565b6040516101d191906118b8565b60405180910390f35b6101e2610b93565b6040516101ef91906117a6565b60405180910390f35b610200610b99565b60405161020d91906118b8565b60405180910390f35b61021e610bbf565b60405161022b91906117a6565b60405180910390f35b61024e60048036038101906102499190611904565b610bc5565b005b61026a60048036038101906102659190611904565b610cd9565b005b6102866004803603810190610281919061195d565b611101565b6040516102979594939291906119a5565b60405180910390f35b6102a8611151565b005b6102b2611313565b6040516102bf91906117a6565b60405180910390f35b6102d0611319565b6040516102dd91906117a6565b60405180910390f35b61030060048036038101906102fb9190611904565b61131f565b005b61031c60048036038101906103179190611904565b611433565b60405161032991906118b8565b60405180910390f35b6001805461033f90611a27565b80601f016020809104026020016040519081016040528092919081815260200182805461036b90611a27565b80156103b85780601f1061038d576101008083540402835291602001916103b8565b820191906000526020600020905b81548152906001019060200180831161039b57829003601f168201915b505050505081565b6000600854905090565b600073ffffffffffffffffffffffffffffffffffffffff163373ffffffffffffffffffffffffffffffffffffffff1603610439576040517f08c379a000000000000000000000000000000000000000000000000000000000815260040161043090611aa4565b60405180910390fd5b6000600a60003373ffffffffffffffffffffffffffffffffffffffff1673ffffffffffffffffffffffffffffffffffffffff168152602001908152602001600020600201549050600081116104c3576040517f08c379a00000000000000000000000000000000000000000000000000000000081526004016104ba90611b10565b60405180910390fd5b6000600a60003373ffffffffffffffffffffffffffffffffffffffff1673ffffffffffffffffffffffffffffffffffffffff16815260200190815260200160002060020181905550600061051682611472565b9050600360009054906101000a900473ffffffffffffffffffffffffffffffffffffffff1673ffffffffffffffffffffffffffffffffffffffff166340c10f1933836040518363ffffffff1660e01b8152600401610575929190611b30565b600060405180830381600087803b15801561058f57600080fd5b505af11580156105a3573d6000803e3d6000fd5b505050503373ffffffffffffffffffffffffffffffffffffffff167ffc30cddea38e2bf4d6ea7d3f9ed3b6ad7f176419f4963bd81318067a4aee73fe826040516105ed91906117a6565b60405180910390a25050565b6000600854905060008054906101000a900473ffffffffffffffffffffffffffffffffffffffff1673ffffffffffffffffffffffffffffffffffffffff163373ffffffffffffffffffffffffffffffffffffffff161461068e576040517f08c379a000000000000000000000000000000000000000000000000000000000815260040161068590611bcb565b60405180910390fd5b6000600854116106d3576040517f08c379a00000000000000000000000000000000000000000000000000000000081526004016106ca90611c37565b60405180910390fd5b6000600881905550600360009054906101000a900473ffffffffffffffffffffffffffffffffffffffff1673ffffffffffffffffffffffffffffffffffffffff166340c10f1960008054906101000a900473ffffffffffffffffffffffffffffffffffffffff16836040518363ffffffff1660e01b8152600401610758929190611b30565b600060405180830381600087803b15801561077257600080fd5b505af1158015610786573d6000803e3d6000fd5b5050505060008054906101000a900473ffffffffffffffffffffffffffffffffffffffff1673ffffffffffffffffffffffffffffffffffffffff167fd244b5a3b2e3977ecffe1a5e5ab7661aadfecbae24be711b7a72bb42bd1b2db0826040516107f091906117a6565b60405180910390a250565b600073ffffffffffffffffffffffffffffffffffffffff163373ffffffffffffffffffffffffffffffffffffffff160361086a576040517f08c379a000000000000000000000000000000000000000000000000000000000815260040161086190611aa4565b60405180910390fd5b600a60003373ffffffffffffffffffffffffffffffffffffffff1673ffffffffffffffffffffffffffffffffffffffff16815260200190815260200160002060030160019054906101000a900460ff166108f9576040517f08c379a00000000000000000000000000000000000000000000000000000000081526004016108f090611ca3565b60405180910390fd5b6000600a60003373ffffffffffffffffffffffffffffffffffffffff1673ffffffffffffffffffffffffffffffffffffffff16815260200190815260200160002060000154905060008111610983576040517f08c379a000000000000000000000000000000000000000000000000000000000815260040161097a90611d35565b60405180910390fd5b61098c336114bf565b6000600a60003373ffffffffffffffffffffffffffffffffffffffff1673ffffffffffffffffffffffffffffffffffffffff1681526020019081526020016000206000018190555080600760008282546109e69190611d84565b925050819055506000600a60003373ffffffffffffffffffffffffffffffffffffffff1673ffffffffffffffffffffffffffffffffffffffff16815260200190815260200160002060030160016101000a81548160ff021916908315150217905550600460009054906101000a900473ffffffffffffffffffffffffffffffffffffffff1673ffffffffffffffffffffffffffffffffffffffff1663a9059cbb33836040518363ffffffff1660e01b8152600401610aa5929190611b30565b6020604051808303816000875af1158015610ac4573d6000803e3d6000fd5b505050506040513d601f19601f82011682018060405250810190610ae89190611de4565b507f4e70a604b23a8edee2b1d0a656e9b9c00b73ad8bb1afc2c59381ee9f69197de781604051610b1891906117a6565b60405180910390a150565b600360009054906101000a900473ffffffffffffffffffffffffffffffffffffffff1681565b600460009054906101000a900473ffffffffffffffffffffffffffffffffffffffff1681565b60008054906101000a900473ffffffffffffffffffffffffffffffffffffffff1681565b60085481565b600260009054906101000a900473ffffffffffffffffffffffffffffffffffffffff1681565b60065481565b600260009054906101000a900473ffffffffffffffffffffffffffffffffffffffff1673ffffffffffffffffffffffffffffffffffffffff163373ffffffffffffffffffffffffffffffffffffffff1614610c55576040517f08c379a0000000000000000000000000000000000000000000000000000000008152600401610c4c90611e83565b60405180910390fd5b60008111610c98576040517f08c379a0000000000000000000000000000000000000000000000000000000008152600401610c8f90611f15565b60405180910390fd5b806006819055507fafe8756db305d883542ec4bfe3721424eb941bba77e39879fd427dae9bd7cfaf42604051610cce9190611fa7565b60405180910390a150565b600073ffffffffffffffffffffffffffffffffffffffff163373ffffffffffffffffffffffffffffffffffffffff1603610d48576040517f08c379a0000000000000000000000000000000000000000000000000000000008152600401610d3f90611aa4565b60405180910390fd5b8060008111610d8c576040517f08c379a0000000000000000000000000000000000000000000000000000000008152600401610d8390612047565b60405180910390fd5b600460009054906101000a900473ffffffffffffffffffffffffffffffffffffffff1673ffffffffffffffffffffffffffffffffffffffff166323b872dd3330856040518463ffffffff1660e01b8152600401610deb93929190612067565b6020604051808303816000875af1158015610e0a573d6000803e3d6000fd5b505050506040513d601f19601f82011682018060405250810190610e2e9190611de4565b5081600a60003373ffffffffffffffffffffffffffffffffffffffff1673ffffffffffffffffffffffffffffffffffffffff1681526020019081526020016000206000016000828254610e81919061209e565b925050819055508160076000828254610e9a919061209e565b92505081905550600a60003373ffffffffffffffffffffffffffffffffffffffff1673ffffffffffffffffffffffffffffffffffffffff16815260200190815260200160002060030160009054906101000a900460ff16610fb4576009339080600181540180825580915050600190039060005260206000200160009091909190916101000a81548173ffffffffffffffffffffffffffffffffffffffff021916908373ffffffffffffffffffffffffffffffffffffffff1602179055506001600a60003373ffffffffffffffffffffffffffffffffffffffff1673ffffffffffffffffffffffffffffffffffffffff16815260200190815260200160002060030160006101000a81548160ff0219169083151502179055505b6001600a60003373ffffffffffffffffffffffffffffffffffffffff1673ffffffffffffffffffffffffffffffffffffffff16815260200190815260200160002060030160016101000a81548160ff0219169083151502179055506000600a60003373ffffffffffffffffffffffffffffffffffffffff1673ffffffffffffffffffffffffffffffffffffffff16815260200190815260200160002060010154036110a55743600a60003373ffffffffffffffffffffffffffffffffffffffff1673ffffffffffffffffffffffffffffffffffffffff168152602001908152602001600020600101819055506110af565b6110ae336114bf565b5b3373ffffffffffffffffffffffffffffffffffffffff167fe1fffcc4923d04b559f4d29a8bfc6cda04eb5b0d3c460751c2402c5c5cc9109c836040516110f591906117a6565b60405180910390a25050565b600a6020528060005260406000206000915090508060000154908060010154908060020154908060030160009054906101000a900460ff16908060030160019054906101000a900460ff16905085565b600260009054906101000a900473ffffffffffffffffffffffffffffffffffffffff1673ffffffffffffffffffffffffffffffffffffffff163373ffffffffffffffffffffffffffffffffffffffff16146111e1576040517f08c379a00000000000000000000000000000000000000000000000000000000081526004016111d890611e83565b60405180910390fd5b60005b6009805490508110156112d957600a600060098381548110611209576112086120d2565b5b9060005260206000200160009054906101000a900473ffffffffffffffffffffffffffffffffffffffff1673ffffffffffffffffffffffffffffffffffffffff1673ffffffffffffffffffffffffffffffffffffffff16815260200190815260200160002060030160019054906101000a900460ff16156112cc576112cb6009828154811061129b5761129a6120d2565b5b9060005260206000200160009054906101000a900473ffffffffffffffffffffffffffffffffffffffff166114bf565b5b80806001019150506111e4565b507fe3c442d494f7839238fa48d18694a40ec47029eb7cc107e2538430bb44c1222e426040516113099190612173565b60405180910390a1565b60055481565b60075481565b600260009054906101000a900473ffffffffffffffffffffffffffffffffffffffff1673ffffffffffffffffffffffffffffffffffffffff163373ffffffffffffffffffffffffffffffffffffffff16146113af576040517f08c379a00000000000000000000000000000000000000000000000000000000081526004016113a690611e83565b60405180910390fd5b600081116113f2576040517f08c379a00000000000000000000000000000000000000000000000000000000081526004016113e9906121ed565b60405180910390fd5b806005819055507fa1be0ab2a701ca9bc00e9e404ad1ea025b37d0fad7d5ab1545642fc054f24559426040516114289190612259565b60405180910390a150565b6009818154811061144357600080fd5b906000526020600020016000915054906101000a900473ffffffffffffffffffffffffffffffffffffffff1681565b600080612710600554846114869190612287565b61149091906122f8565b905080600860008282546114a4919061209e565b9250508190555080836114b79190611d84565b915050919050565b6000600a60008373ffffffffffffffffffffffffffffffffffffffff1673ffffffffffffffffffffffffffffffffffffffff168152602001908152602001600020600101549050804311611548576040517f08c379a000000000000000000000000000000000000000000000000000000000815260040161153f9061239b565b60405180910390fd5b60006007541161158d576040517f08c379a000000000000000000000000000000000000000000000000000000000815260040161158490612407565b60405180910390fd5b6000814361159b9190611d84565b90506000600754670de0b6b3a7640000600a60008773ffffffffffffffffffffffffffffffffffffffff1673ffffffffffffffffffffffffffffffffffffffff168152602001908152602001600020600001546115f89190612287565b61160291906122f8565b90506000670de0b6b3a7640000828460065461161e9190612287565b6116289190612287565b61163291906122f8565b905080600a60008773ffffffffffffffffffffffffffffffffffffffff1673ffffffffffffffffffffffffffffffffffffffff1681526020019081526020016000206002016000828254611686919061209e565b9250508190555043600a60008773ffffffffffffffffffffffffffffffffffffffff1673ffffffffffffffffffffffffffffffffffffffff168152602001908152602001600020600101819055505050505050565b600081519050919050565b600082825260208201905092915050565b60005b838110156117155780820151818401526020810190506116fa565b60008484015250505050565b6000601f19601f8301169050919050565b600061173d826116db565b61174781856116e6565b93506117578185602086016116f7565b61176081611721565b840191505092915050565b600060208201905081810360008301526117858184611732565b905092915050565b6000819050919050565b6117a08161178d565b82525050565b60006020820190506117bb6000830184611797565b92915050565b600073ffffffffffffffffffffffffffffffffffffffff82169050919050565b6000819050919050565b60006118066118016117fc846117c1565b6117e1565b6117c1565b9050919050565b6000611818826117eb565b9050919050565b600061182a8261180d565b9050919050565b61183a8161181f565b82525050565b60006020820190506118556000830184611831565b92915050565b60006118668261180d565b9050919050565b6118768161185b565b82525050565b6000602082019050611891600083018461186d565b92915050565b60006118a2826117c1565b9050919050565b6118b281611897565b82525050565b60006020820190506118cd60008301846118a9565b92915050565b600080fd5b6118e18161178d565b81146118ec57600080fd5b50565b6000813590506118fe816118d8565b92915050565b60006020828403121561191a576119196118d3565b5b6000611928848285016118ef565b91505092915050565b61193a81611897565b811461194557600080fd5b50565b60008135905061195781611931565b92915050565b600060208284031215611973576119726118d3565b5b600061198184828501611948565b91505092915050565b60008115159050919050565b61199f8161198a565b82525050565b600060a0820190506119ba6000830188611797565b6119c76020830187611797565b6119d46040830186611797565b6119e16060830185611996565b6119ee6080830184611996565b9695505050505050565b7f4e487b7100000000000000000000000000000000000000000000000000000000600052602260045260246000fd5b60006002820490506001821680611a3f57607f821691505b602082108103611a5257611a516119f8565b5b50919050565b7f63616e6e6f74206265206465207a65726f206164647265737300000000000000600082015250565b6000611a8e6019836116e6565b9150611a9982611a58565b602082019050919050565b60006020820190508181036000830152611abd81611a81565b9050919050565b7f796f752068617665206e6f207265776172647300000000000000000000000000600082015250565b6000611afa6013836116e6565b9150611b0582611ac4565b602082019050919050565b60006020820190508181036000830152611b2981611aed565b9050919050565b6000604082019050611b4560008301856118a9565b611b526020830184611797565b9392505050565b7f4f6e6c792074726561737572792063616e20706572666f726d2074686973206160008201527f6374696f6e000000000000000000000000000000000000000000000000000000602082015250565b6000611bb56025836116e6565b9150611bc082611b59565b604082019050919050565b60006020820190508181036000830152611be481611ba8565b9050919050565b7f4e6f206665657320746f20776974686472617700000000000000000000000000600082015250565b6000611c216013836116e6565b9150611c2c82611beb565b602082019050919050565b60006020820190508181036000830152611c5081611c14565b9050919050565b7f796f7520617265206e6f74207374616b696e6700000000000000000000000000600082015250565b6000611c8d6013836116e6565b9150611c9882611c57565b602082019050919050565b60006020820190508181036000830152611cbc81611c80565b9050919050565b7f596f752063616e6e6f7420776974686472617720796f75722062616c616e636560008201527f2069732030000000000000000000000000000000000000000000000000000000602082015250565b6000611d1f6025836116e6565b9150611d2a82611cc3565b604082019050919050565b60006020820190508181036000830152611d4e81611d12565b9050919050565b7f4e487b7100000000000000000000000000000000000000000000000000000000600052601160045260246000fd5b6000611d8f8261178d565b9150611d9a8361178d565b9250828203905081811115611db257611db1611d55565b5b92915050565b611dc18161198a565b8114611dcc57600080fd5b50565b600081519050611dde81611db8565b92915050565b600060208284031215611dfa57611df96118d3565b5b6000611e0884828501611dcf565b91505092915050565b7f4f6e6c79206f776e65722063616e20706572666f726d2074686973206163746960008201527f6f6e000000000000000000000000000000000000000000000000000000000000602082015250565b6000611e6d6022836116e6565b9150611e7882611e11565b604082019050919050565b60006020820190508181036000830152611e9c81611e60565b9050919050565b7f5265776172642070657220626c6f636b206d757374206265206772656174657260008201527f207468616e203000000000000000000000000000000000000000000000000000602082015250565b6000611eff6027836116e6565b9150611f0a82611ea3565b604082019050919050565b60006020820190508181036000830152611f2e81611ef2565b9050919050565b7f74686520626c6f636b2072657761726420616d6f756e7420776173206368616e60008201527f6765640000000000000000000000000000000000000000000000000000000000602082015250565b6000611f916023836116e6565b9150611f9c82611f35565b604082019050919050565b6000604082019050611fbc6000830184611797565b8181036020830152611fcd81611f84565b905092915050565b7f54686520616d6f756e74206d7573742062652067726561746572207468616e2060008201527f3000000000000000000000000000000000000000000000000000000000000000602082015250565b60006120316021836116e6565b915061203c82611fd5565b604082019050919050565b6000602082019050818103600083015261206081612024565b9050919050565b600060608201905061207c60008301866118a9565b61208960208301856118a9565b6120966040830184611797565b949350505050565b60006120a98261178d565b91506120b48361178d565b92508282019050808211156120cc576120cb611d55565b5b92915050565b7f4e487b7100000000000000000000000000000000000000000000000000000000600052603260045260246000fd5b7f74686520726577617264732068617665206265656e206469737472696275746560008201527f6400000000000000000000000000000000000000000000000000000000000000602082015250565b600061215d6021836116e6565b915061216882612101565b604082019050919050565b60006040820190506121886000830184611797565b818103602083015261219981612150565b905092915050565b7f466565206d7573742062652067726561746572207468616e2030000000000000600082015250565b60006121d7601a836116e6565b91506121e2826121a1565b602082019050919050565b60006020820190508181036000830152612206816121ca565b9050919050565b7f7468652066656520616d6f756e7420776173206368616e676564000000000000600082015250565b6000612243601a836116e6565b915061224e8261220d565b602082019050919050565b600060408201905061226e6000830184611797565b818103602083015261227f81612236565b905092915050565b60006122928261178d565b915061229d8361178d565b92508282026122ab8161178d565b915082820484148315176122c2576122c1611d55565b5b5092915050565b7f4e487b7100000000000000000000000000000000000000000000000000000000600052601260045260246000fd5b60006123038261178d565b915061230e8361178d565b92508261231e5761231d6122c9565b5b828204905092915050565b7f4e6f206e657720626c6f636b732073696e6365206c61737420636865636b706f60008201527f696e740000000000000000000000000000000000000000000000000000000000602082015250565b60006123856023836116e6565b915061239082612329565b604082019050919050565b600060208201905081810360008301526123b481612378565b9050919050565b7f4e6f207374616b696e672062616c616e63650000000000000000000000000000600082015250565b60006123f16012836116e6565b91506123fc826123bb565b602082019050919050565b60006020820190508181036000830152612420816123e4565b905091905056fea26469706673582212209e60c2e7ea627691e5e61b72c5dd881930a4de599639bc8cbbb740d1a57f204664736f6c634300081c0033",
  "linkReferences": {},
  "deployedLinkReferences": {}
}